{
  "_format": "hh-sol-artifact-1",
  "contractName": "ECON",
  "sourceName": "contracts/ECON.sol",
  "abi": [
    {
      "inputs": [
        {
          "internalType": "address",
          "name": "initialOracleAddress",
          "type": "address"
        },
        {
          "internalType": "string",
          "name": "initialPrompt",
          "type": "string"
        }
      ],
      "stateMutability": "nonpayable",
      "type": "constructor"
    },
    {
      "anonymous": false,
      "inputs": [
        {
          "indexed": true,
          "internalType": "address",
          "name": "owner",
          "type": "address"
        },
        {
          "indexed": true,
          "internalType": "uint256",
          "name": "chatId",
          "type": "uint256"
        }
      ],
      "name": "ChatCreated",
      "type": "event"
    },
    {
      "anonymous": false,
      "inputs": [
        {
          "indexed": true,
          "internalType": "address",
          "name": "newOracleAddress",
          "type": "address"
        }
      ],
      "name": "OracleAddressUpdated",
      "type": "event"
    },
    {
      "inputs": [
        {
          "internalType": "string",
          "name": "message",
          "type": "string"
        },
        {
          "internalType": "uint256",
          "name": "runId",
          "type": "uint256"
        }
      ],
      "name": "addMessage",
      "outputs": [],
      "stateMutability": "nonpayable",
      "type": "function"
    },
    {
      "inputs": [
        {
          "internalType": "uint256",
          "name": "",
          "type": "uint256"
        }
      ],
      "name": "chatRuns",
      "outputs": [
        {
          "internalType": "address",
          "name": "owner",
          "type": "address"
        },
        {
          "internalType": "uint256",
          "name": "messagesCount",
          "type": "uint256"
        }
      ],
      "stateMutability": "view",
      "type": "function"
    },
    {
      "inputs": [
        {
          "internalType": "uint256",
          "name": "chatId",
          "type": "uint256"
        }
      ],
      "name": "getMessageHistory",
      "outputs": [
        {
          "components": [
            {
              "internalType": "string",
              "name": "role",
              "type": "string"
            },
            {
              "components": [
                {
                  "internalType": "string",
                  "name": "contentType",
                  "type": "string"
                },
                {
                  "internalType": "string",
                  "name": "value",
                  "type": "string"
                }
              ],
              "internalType": "struct IOracle.Content[]",
              "name": "content",
              "type": "tuple[]"
            }
          ],
          "internalType": "struct IOracle.Message[]",
          "name": "",
          "type": "tuple[]"
        }
      ],
      "stateMutability": "view",
      "type": "function"
    },
    {
      "inputs": [
        {
          "internalType": "uint256",
          "name": "runId",
          "type": "uint256"
        },
        {
          "components": [
            {
              "internalType": "string",
              "name": "id",
              "type": "string"
            },
            {
              "internalType": "string",
              "name": "content",
              "type": "string"
            },
            {
              "internalType": "uint64",
              "name": "created",
              "type": "uint64"
            },
            {
              "internalType": "string",
              "name": "model",
              "type": "string"
            },
            {
              "internalType": "string",
              "name": "systemFingerprint",
              "type": "string"
            },
            {
              "internalType": "string",
              "name": "object",
              "type": "string"
            },
            {
              "internalType": "uint32",
              "name": "completionTokens",
              "type": "uint32"
            },
            {
              "internalType": "uint32",
              "name": "promptTokens",
              "type": "uint32"
            },
            {
              "internalType": "uint32",
              "name": "totalTokens",
              "type": "uint32"
            }
          ],
          "internalType": "struct IOracle.GroqResponse",
          "name": "response",
          "type": "tuple"
        },
        {
          "internalType": "string",
          "name": "errorMessage",
          "type": "string"
        }
      ],
      "name": "onOracleGroqLlmResponse",
      "outputs": [],
      "stateMutability": "nonpayable",
      "type": "function"
    },
    {
      "inputs": [],
      "name": "oracleAddress",
      "outputs": [
        {
          "internalType": "address",
          "name": "",
          "type": "address"
        }
      ],
      "stateMutability": "view",
      "type": "function"
    },
    {
      "inputs": [],
      "name": "prompt",
      "outputs": [
        {
          "internalType": "string",
          "name": "",
          "type": "string"
        }
      ],
      "stateMutability": "view",
      "type": "function"
    },
    {
      "inputs": [
        {
          "internalType": "address",
          "name": "newOracleAddress",
          "type": "address"
        }
      ],
      "name": "setOracleAddress",
      "outputs": [],
      "stateMutability": "nonpayable",
      "type": "function"
    },
    {
      "inputs": [
        {
          "internalType": "string",
          "name": "message",
          "type": "string"
        }
      ],
      "name": "startChat",
      "outputs": [
        {
          "internalType": "uint256",
          "name": "",
          "type": "uint256"
        }
      ],
      "stateMutability": "nonpayable",
      "type": "function"
    }
  ],
  "bytecode": "0x6040608081523462000a74576200222c90813803806200001f8162000ab9565b938439820191818184031262000a745780516001600160a01b038116919082900362000a74576020810151906001600160401b03821162000a74570183601f8201121562000a74578051906001600160401b038211620005aa576200008e601f8301601f191660200162000ab9565b948286526020838301011162000a745760005b82811062000a5e57505060206000918501015260018060a01b0319338160035416176003556004541617600455815160018060401b038111620005aa57600054600181811c9116801562000a53575b60208210146200058957601f8111620009fb575b50602092601f821160011462000985579281929360009262000979575b50508160011b916000199060031b1c1916176000555b600060025580519061016082016001600160401b03811183821017620005aa5781526200016362000a79565b60128152710dad2f0e8e4c2d85a70f06ec45a66646e6c760731b60208201528252601560208301526200019562000a99565b60008152818301526103e8606083015260156080830152620001b662000a79565b600f81526e7b2274797065223a2274657874227d60881b602082015260a0830152600060c0830152620001e862000a99565b6000815260e0830152600a61010083015260656101208301526200020b62000a99565b60008152610140830152815180519092906001600160401b038111620005aa57600554600181811c911680156200096e575b60208210146200058957601f811162000924575b506020601f8211600114620008b55781929394600092620008a9575b50508160011b916000199060031b1c1916176005555b602081015160ff19600654169060ff16176006558181015191825160018060401b038111620005aa57600754600181811c911680156200089e575b60208210146200058957601f811162000838575b506020601f8211600114620007c95781929394600092620007bd575b50508160011b916000199060031b1c1916176007555b63ffffffff60608301511660085490608084015160201b64ff00000000169164ffffffffff1916171760085560a082015191825160018060401b038111620005aa57600954600181811c91168015620007b2575b60208210146200058957601f81116200074c575b506020601f8211600114620006dd5781929394600092620006d1575b50508160011b916000199060031b1c1916176009555b60c0810151600a5560e08101518051906001600160401b038211620005aa57600b54600181811c91168015620006c6575b60208210146200058957601f81116200065c575b50602090601f8311600114620005cc5761014093929160009183620005c0575b50508160011b916000199060031b1c191617600b555b610100810151600c55610120810151600d55015180519091906001600160401b038111620005aa57600e54600181811c911680156200059f575b60208210146200058957601f81116200051f575b50602092601f8211600114620004b45792819293600092620004a8575b50508160011b916000199060031b1c191617600e555b5161172c908162000ae08239f35b01519050388062000484565b601f19821693600e60005260206000209160005b868110620005065750836001959610620004ec575b505050811b01600e556200049a565b015160001960f88460031b161c19169055388080620004dd565b91926020600181928685015181550194019201620004c8565b600e6000527fbb7b4a454dc3493923482f07822329ed19e8244eff582cc204f8554c3620c3fd601f830160051c810191602084106200057e575b601f0160051c01905b81811062000571575062000467565b6000815560010162000562565b909150819062000559565b634e487b7160e01b600052602260045260246000fd5b90607f169062000453565b634e487b7160e01b600052604160045260246000fd5b01519050388062000403565b600b60009081527f0175b7a638427703f0dbe7bb9bbf987a2551717b34e79f33b5b1008d1fa01db9929190601f198516905b8181106200064357509160019391856101409796941062000629575b505050811b01600b5562000419565b015160001960f88460031b161c191690553880806200061a565b92936020600181928786015181550195019301620005fe565b600b6000527f0175b7a638427703f0dbe7bb9bbf987a2551717b34e79f33b5b1008d1fa01db9601f840160051c81019160208510620006bb575b601f0160051c01905b818110620006ae5750620003e3565b600081556001016200069f565b909150819062000696565b90607f1690620003cf565b01519050388062000388565b600960005260206000209060005b601f1984168110620007335750600193949583601f1981161062000719575b505050811b016009556200039e565b015160001960f88460031b161c191690553880806200070a565b9091602060018192858a015181550193019101620006eb565b60096000527f6e1540171b6c0c960b71a7020d9f60077f6af931a8bbf590da0223dacf75c7af601f830160051c810160208410620007aa575b601f830160051c820181106200079d5750506200036c565b6000815560010162000785565b508062000785565b90607f169062000358565b015190503880620002ee565b600760005260206000209060005b601f19841681106200081f5750600193949583601f1981161062000805575b505050811b0160075562000304565b015160001960f88460031b161c19169055388080620007f6565b9091602060018192858a015181550193019101620007d7565b60076000527fa66cc928b5edb82af9bd49922954155ab7b0942694bea4ce44661d9a8736c688601f830160051c81016020841062000896575b601f830160051c8201811062000889575050620002d2565b6000815560010162000871565b508062000871565b90607f1690620002be565b0151905038806200026d565b600560005260206000209060005b601f19841681106200090b5750600193949583601f19811610620008f1575b505050811b0160055562000283565b015160001960f88460031b161c19169055388080620008e2565b9091602060018192858a015181550193019101620008c3565b60056000526020600020601f830160051c81016020841062000966575b601f830160051c820181106200095957505062000251565b6000815560010162000941565b508062000941565b90607f16906200023d565b01519050388062000121565b6000808052601f198316946000805160206200220c8339815191529290915b868110620009e25750836001959610620009c8575b505050811b0160005562000137565b015160001960f88460031b161c19169055388080620009b9565b91926020600181928685015181550194019201620009a4565b600080526000805160206200220c833981519152601f830160051c8101916020841062000a48575b601f0160051c01905b81811062000a3b575062000104565b6000815560010162000a2c565b909150819062000a23565b90607f1690620000f0565b80602080928401015182828901015201620000a1565b600080fd5b60408051919082016001600160401b03811183821017620005aa57604052565b60405190602082016001600160401b03811183821017620005aa57604052565b6040519190601f01601f191682016001600160401b03811183821017620005aa5760405256fe6040608081526004908136101561001557600080fd5b600091823560e01c80632d08d82a146108f15780634c69c00f1461084a57806354a470fc14610633578063632cc98b146105fa5780637c65d711146105b4578063941fac37146103d9578063a89ae4ba146103b25763cc0601371461007957600080fd5b346103ae57600319916060368401126103aa5760249283359167ffffffffffffffff8084116103a657610120809385360301126103a6578151928301838110828211176103945782528385013581811161038c576100dc90863691870101610ad0565b83528584013581811161038c576100f890863691870101610ad0565b9260209485820194855260448101358381168103610390578483015260648101358381116103905761012f90883691840101610ad0565b606083015260848101358381116103905761014f90883691840101610ad0565b608083015260a481013590838211610390576101046101a79161017a610100948b3691840101610ad0565b60a086015261018b60c48201610ce8565b60c086015261019c60e48201610ce8565b60e086015201610ce8565b91015260443581811161038c576101c19036908701610ad0565b85549095906001600160a01b031633036103535780358852600185528288209460026001870196019788546000198101908111610341576102029088610cf9565b50855161022481610216868201809561157f565b03601f198101835282610aae565b519020855183810190633ab9b2b960e11b825285815261024381610a7c565b519020036103005784519282840194848610908611176102ef5750506102ab908385528983528785516102928382816102858183019687815193849201610b2c565b8101038084520182610aae565b5190209451809361028583830196879251928391610b2c565b519020146102dd57506102c86102ce926102c3611601565b611664565b90610d8b565b6102d88154611185565b905580f35b6102ce92506102c890516102c3611601565b634e487b7160e01b8b526041905289fd5b6064935060189185519362461bcd60e51b85528401528201527f4e6f206d65737361676520746f20726573706f6e6420746f00000000000000006044820152fd5b50634e487b7160e01b8a526011835289fd5b825162461bcd60e51b81529081018590526014818801527343616c6c6572206973206e6f74206f7261636c6560601b6044820152606490fd5b8780fd5b8980fd5b634e487b7160e01b8852604186528688fd5b8680fd5b8380fd5b8280fd5b50346103ae57826003193601126103ae575490516001600160a01b03909116815260209150f35b5090346103ae57806003193601126103ae57813567ffffffffffffffff81116103aa576104099036908401610ad0565b91602435908185526020936001855283862090600182016002830191825460001981019081116105a15761043d9083610cf9565b508751610451816102168c8201809561157f565b51902087518981019068185cdcda5cdd185b9d60ba1b82526009815261047681610a7c565b5190200361055e5792546001600160a01b0393908416330361051d57916104ab6104d5979694926102c88a97956102c3611194565b6104b58154611185565b905581541690878551809781958294631e0fca9360e11b845283016111b4565b03925af190811561051457506104e9578280f35b813d831161050d575b6104fc8183610aae565b8101031261050a5738808280f35b80fd5b503d6104f2565b513d85823e3d90fd5b60648589808a519262461bcd60e51b845283015260248201527f4f6e6c792063686174206f776e65722063616e20616464206d657373616765736044820152fd5b865162461bcd60e51b8152808601899052601f60248201527f4e6f20726573706f6e736520746f2070726576696f7573206d657373616765006044820152606490fd5b634e487b7160e01b8a526011865260248afd5b5050346105f657816003193601126105f65780516105f2916105e0826105d981610bae565b0383610aae565b51918291602083526020830190610b4f565b0390f35b5080fd5b50346103ae5760203660031901126103ae57918192358152600160205220600260018060a01b0382541691015482519182526020820152f35b508290346105f657602090816003193601126103ae573582526001808252838320810180549094919261066582611626565b9161067284519384610aae565b8083528183018097875282872087915b838310610776575050505082519481860192828752518093528386016005948085871b8901019895835b8685106106b957898b038af35b909192939495969786819b603f198c82030187528a51826106e1825189855289850190610b4f565b91015191838183039101528151808252838201908480828a1b850101940192875b878b848310610729575050505050505081909a0195019501939695949291909997996106ac565b61076490899395979992949698601f19888203018a52836107548c5193845190808552840190610b4f565b9201519084818403910152610b4f565b970195019101918c9594939192610702565b968685829b99829798995161078a81610a7c565b83516107a18161079a818a610c52565b0382610aae565b815285850180548e6107b282611626565b926107bf88519485610aae565b828452815285812090888785015b8483106107f6575050505050600294508382015281520192019201919098969895949395610682565b89600293959799929496989a519061080d82610a7c565b805161081d8161079a818c610c52565b8252516108308161079a81898c01610c52565b8382015281520193019101908c959391888d9896946107cd565b50346103ae5760203660031901126103ae5780356001600160a01b0381811693918490036108ed576003541633036108b4575080546001600160a01b031916821790557f107a9fafffb7ac890f780879e423760c9ffea8dcee8045681f40f542aede2cb88280a280f35b906020606492519162461bcd60e51b8352820152601360248201527221b0b63632b91034b9903737ba1037bbb732b960691b6044820152fd5b8480fd5b508290346105f657602092836003193601126103ae57813567ffffffffffffffff81116103aa576109259036908401610ad0565b6002548452600185526109a5828520336bffffffffffffffffffffffff60a01b8254161781556102c86002610980865161095e81610a7c565b600681526573797374656d60d01b8b8201528751906102c3826105d981610bae565b9261098f600182019485610d8b565b019361099b8554611185565b85556102c3611194565b6109af8154611185565b90556002549160018301808411610a6957836109ef92879260025560018060a01b0381541690878651809681958294631e0fca9360e11b845283016111b4565b03925af18015610a5f578392918691610a30575b505051927fd1de2c4de50323207202f3df0bb1dec1a42e233aec245f25519d674c10bd72ca339180a38152f35b90809293503d8311610a58575b610a478183610aae565b810103126103ae5781908486610a03565b503d610a3d565b82513d86823e3d90fd5b634e487b7160e01b855260118252602485fd5b6040810190811067ffffffffffffffff821117610a9857604052565b634e487b7160e01b600052604160045260246000fd5b90601f8019910116810190811067ffffffffffffffff821117610a9857604052565b81601f82011215610b275780359067ffffffffffffffff8211610a985760405192610b05601f8401601f191660200185610aae565b82845260208383010111610b2757816000926020809301838601378301015290565b600080fd5b60005b838110610b3f5750506000910152565b8181015183820152602001610b2f565b90602091610b6881518092818552858086019101610b2c565b601f01601f1916010190565b90600182811c92168015610ba4575b6020831014610b8e57565b634e487b7160e01b600052602260045260246000fd5b91607f1691610b83565b9060009160005490610bbf82610b74565b80825291600190818116908115610c355750600114610bdd57505050565b91929350600080527f290decd9548b62a8d60345a988386fc84ba6bc95484008f6362f93160ef3e563916000925b848410610c1d57505060209250010190565b80546020858501810191909152909301928101610c0b565b915050602093945060ff929192191683830152151560051b010190565b9060009291805491610c6383610b74565b918282526001938481169081600014610cc55750600114610c85575b50505050565b90919394506000526020928360002092846000945b838610610cb1575050505001019038808080610c7f565b805485870183015294019385908201610c9a565b9294505050602093945060ff191683830152151560051b01019038808080610c7f565b359063ffffffff82168203610b2757565b8054821015610d155760005260206000209060011b0190600090565b634e487b7160e01b600052603260045260246000fd5b818110610d36575050565b60008155600101610d2b565b610d4c8154610b74565b9081610d56575050565b81601f60009311600114610d68575055565b908083918252610d87601f60208420940160051c840160018501610d2b565b5555565b90815490680100000000000000009182811015610a9857610db3906001948582018155610cf9565b91909161116f57805180519267ffffffffffffffff93848111610a98578690610ddc8354610b74565b93601f94858111611135575b506020908583116001146110cc576020949291600091836110c1575b5050600019600383901b1c191690831b1781555b019201518051948511610a98578254858455808610611054575b5060009283526020808420939491015b858510610e525750505050505050565b8051908151805190848211610a98578190610e6d8854610b74565b878111611024575b50602090878311600114610fc157600092610fb6575b5050600019600383901b1c191690891b1785555b6020888601920151918251848111610a98578993610ebd8354610b74565b878111610f7c575b50602090878311600114610f105791806020949260029694600092610f05575b5050600019600383901b1c191690861b1790555b01940194019392610e42565b015190503880610ee5565b90601f1983169184600052816000209260005b818110610f6457509287928592600298966020989610610f4b575b505050811b019055610ef9565b015160001960f88460031b161c19169055388080610f3e565b8284015185558e989094019360209384019301610f23565b610fa79084600052602060002060058a808701821c83019360208810610fad575b01901c0190610d2b565b38610ec5565b93508293610f9d565b015190503880610e8b565b908b9350601f1983169189600052816000209260005b81811061100c57508411610ff3575b505050811b018555610e9f565b015160001960f88460031b161c19169055388080610fe6565b8284015185558e969094019360209384019301610fd7565b61104e9089600052602060002060058a808701821c83019360208810610fad5701901c0190610d2b565b38610e75565b6001600160ff1b0381811682036110ab57861686036110ab5783600052602060002090871b81019086881b015b81811061108e5750610e32565b8061109a600292610d42565b6110a5898201610d42565b01611081565b634e487b7160e01b600052601160045260246000fd5b015190503880610e04565b90601f1983169185600052816000209260005b81811061111d57509185939185602098969410611104575b505050811b018155610e18565b015160001960f88460031b161c191690553880806110f7565b8284015185558c9690940193602093840193016110df565b611160908560005260206000208780860160051c82019260208710611166575b0160051c0190610d2b565b38610de8565b92508192611155565b634e487b7160e01b600052600060045260246000fd5b60001981146110ab5760010190565b604051906111a182610a7c565b60048252633ab9b2b960e11b6020830152565b90815260206040818301526101609182604082015260006005918254946111da86610b74565b806101a084015260019687811690816000146115615750600114611504575b5060065460000b6060830152603f1990818385030160808401526000936007549061122382610b74565b91828252888a821691826000146114e657505060011461148c575b505060085463ffffffff811660a0850152861c60000b60c0840152818385030160e08401526000936009549061127382610b74565b91828252888a8216918260001461146e575050600114611414575b5050600a546101008401528284038201610120840152600b546000946112b382610b74565b91828252888a821691826000146113f4575050600114611393575b50509061018091600c54610140850152600d549084015282840301910152600093600e546112fb81610b74565b8084529381831691821561137457505060011461131a575b5050505090565b92935090600e6000527fbb7b4a454dc3493923482f07822329ed19e8244eff582cc204f8554c3620c3fd92846000945b8386106113605750505050010138808080611313565b80548587018301529401938590820161134a565b925093929495505060ff1916848401521515901b010138808080611313565b929194508690600b6000527f0175b7a638427703f0dbe7bb9bbf987a2551717b34e79f33b5b1008d1fa01db990896000925b8284106113de57505050610180930101939091386112ce565b80548785018601528a94909301928b91016113c5565b60ff191683820152921515881b90910190910194506101809050386112ce565b8792955060096000527f6e1540171b6c0c960b71a7020d9f60077f6af931a8bbf590da0223dacf75c7af91896000935b82851061145857505050010192388061128e565b80548585018701528a95909401938b9101611444565b60ff191683820152921515881b90910190910194503890508061128e565b8792955060076000527fa66cc928b5edb82af9bd49922954155ab7b0942694bea4ce44661d9a8736c68891896000935b8285106114d057505050010192388061123e565b80548585018701528a95909401938b91016114bc565b60ff191683820152921515881b90910190910194503890508061123e565b909250836000527f036b6384b5eca791c62761152d0c79bb0604c104a5fb6f4eb0703f3154bb3db085876000925b84841061154b575050506101c0915082010191386111f9565b80546101c0858801015201910190878791611532565b929450506101c09160ff1916828401521515841b82010191386111f9565b60009291815461158e81610b74565b926001918083169081156115e657506001146115aa5750505050565b90919293945060005260209081600020906000915b8583106115d55750505050019038808080610c7f565b8054858401529183019181016115bf565b60ff1916845250505081151590910201915038808080610c7f565b6040519061160e82610a7c565b6009825268185cdcda5cdd185b9d60ba1b6020830152565b67ffffffffffffffff8111610a985760051b60200190565b6040519061164b82610a7c565b60606020838281520152565b805115610d155760200190565b9061166d61163e565b506040519061167b82610a7c565b6001825260005b6020808210156116a4579060209161169861163e565b90828601015201611682565b5050906116f0602091604051946116ba86610a7c565b85526116cb83860191808352611657565b51604051906116d982610a7c565b60048252631d195e1d60e21b858301525251611657565b5101529056fea26469706673582212207b3c9244d8737c890cbbbafe3e969e0375753f99610bf37b709672f59571787464736f6c63430008140033290decd9548b62a8d60345a988386fc84ba6bc95484008f6362f93160ef3e563",
  "linkReferences": {},
  "deployedLinkReferences": {}
}