{
  "_format": "hh-sol-artifact-1",
  "contractName": "DELUSION",
  "sourceName": "contracts/DELUSION.sol",
  "abi": [
    {
      "inputs": [
        {
          "internalType": "address",
          "name": "initialOracleAddress",
          "type": "address"
        },
        {
          "internalType": "string",
          "name": "initialPrompt",
          "type": "string"
        }
      ],
      "stateMutability": "nonpayable",
      "type": "constructor"
    },
    {
      "anonymous": false,
      "inputs": [
        {
          "indexed": true,
          "internalType": "address",
          "name": "owner",
          "type": "address"
        },
        {
          "indexed": true,
          "internalType": "uint256",
          "name": "chatId",
          "type": "uint256"
        }
      ],
      "name": "ChatCreated",
      "type": "event"
    },
    {
      "anonymous": false,
      "inputs": [
        {
          "indexed": true,
          "internalType": "uint256",
          "name": "chatId",
          "type": "uint256"
        },
        {
          "indexed": true,
          "internalType": "uint256",
          "name": "messageIndex",
          "type": "uint256"
        },
        {
          "indexed": false,
          "internalType": "string",
          "name": "imageUrl",
          "type": "string"
        }
      ],
      "name": "ImageGenerated",
      "type": "event"
    },
    {
      "anonymous": false,
      "inputs": [
        {
          "indexed": true,
          "internalType": "uint256",
          "name": "chatId",
          "type": "uint256"
        },
        {
          "indexed": true,
          "internalType": "uint256",
          "name": "messageIndex",
          "type": "uint256"
        },
        {
          "indexed": false,
          "internalType": "string",
          "name": "scenario",
          "type": "string"
        }
      ],
      "name": "ImageRequestCreated",
      "type": "event"
    },
    {
      "anonymous": false,
      "inputs": [
        {
          "indexed": true,
          "internalType": "address",
          "name": "newOracleAddress",
          "type": "address"
        }
      ],
      "name": "OracleAddressUpdated",
      "type": "event"
    },
    {
      "inputs": [
        {
          "internalType": "string",
          "name": "message",
          "type": "string"
        },
        {
          "internalType": "uint256",
          "name": "runId",
          "type": "uint256"
        }
      ],
      "name": "addMessage",
      "outputs": [],
      "stateMutability": "nonpayable",
      "type": "function"
    },
    {
      "inputs": [
        {
          "internalType": "uint256",
          "name": "",
          "type": "uint256"
        },
        {
          "internalType": "uint256",
          "name": "",
          "type": "uint256"
        }
      ],
      "name": "chatImageUrls",
      "outputs": [
        {
          "internalType": "string",
          "name": "",
          "type": "string"
        }
      ],
      "stateMutability": "view",
      "type": "function"
    },
    {
      "inputs": [
        {
          "internalType": "uint256",
          "name": "",
          "type": "uint256"
        }
      ],
      "name": "chatRuns",
      "outputs": [
        {
          "internalType": "address",
          "name": "owner",
          "type": "address"
        },
        {
          "internalType": "uint256",
          "name": "messagesCount",
          "type": "uint256"
        }
      ],
      "stateMutability": "view",
      "type": "function"
    },
    {
      "inputs": [
        {
          "internalType": "uint256",
          "name": "chatId",
          "type": "uint256"
        },
        {
          "internalType": "uint256",
          "name": "lastIndex",
          "type": "uint256"
        }
      ],
      "name": "getAllChatImages",
      "outputs": [
        {
          "internalType": "uint256[]",
          "name": "",
          "type": "uint256[]"
        },
        {
          "internalType": "string[]",
          "name": "",
          "type": "string[]"
        }
      ],
      "stateMutability": "view",
      "type": "function"
    },
    {
      "inputs": [
        {
          "internalType": "uint256",
          "name": "chatId",
          "type": "uint256"
        },
        {
          "internalType": "uint256",
          "name": "messageIndex",
          "type": "uint256"
        }
      ],
      "name": "getImageUrl",
      "outputs": [
        {
          "internalType": "string",
          "name": "",
          "type": "string"
        }
      ],
      "stateMutability": "view",
      "type": "function"
    },
    {
      "inputs": [
        {
          "internalType": "uint256",
          "name": "chatId",
          "type": "uint256"
        }
      ],
      "name": "getMessageHistory",
      "outputs": [
        {
          "components": [
            {
              "internalType": "string",
              "name": "role",
              "type": "string"
            },
            {
              "components": [
                {
                  "internalType": "string",
                  "name": "contentType",
                  "type": "string"
                },
                {
                  "internalType": "string",
                  "name": "value",
                  "type": "string"
                }
              ],
              "internalType": "struct IOracle.Content[]",
              "name": "content",
              "type": "tuple[]"
            }
          ],
          "internalType": "struct IOracle.Message[]",
          "name": "",
          "type": "tuple[]"
        }
      ],
      "stateMutability": "view",
      "type": "function"
    },
    {
      "inputs": [
        {
          "internalType": "uint256",
          "name": "requestId",
          "type": "uint256"
        },
        {
          "internalType": "string",
          "name": "response",
          "type": "string"
        },
        {
          "internalType": "string",
          "name": "errorMessage",
          "type": "string"
        }
      ],
      "name": "onOracleFunctionResponse",
      "outputs": [],
      "stateMutability": "nonpayable",
      "type": "function"
    },
    {
      "inputs": [
        {
          "internalType": "uint256",
          "name": "runId",
          "type": "uint256"
        },
        {
          "components": [
            {
              "internalType": "string",
              "name": "id",
              "type": "string"
            },
            {
              "internalType": "string",
              "name": "content",
              "type": "string"
            },
            {
              "internalType": "uint64",
              "name": "created",
              "type": "uint64"
            },
            {
              "internalType": "string",
              "name": "model",
              "type": "string"
            },
            {
              "internalType": "string",
              "name": "systemFingerprint",
              "type": "string"
            },
            {
              "internalType": "string",
              "name": "object",
              "type": "string"
            },
            {
              "internalType": "uint32",
              "name": "completionTokens",
              "type": "uint32"
            },
            {
              "internalType": "uint32",
              "name": "promptTokens",
              "type": "uint32"
            },
            {
              "internalType": "uint32",
              "name": "totalTokens",
              "type": "uint32"
            }
          ],
          "internalType": "struct IOracle.GroqResponse",
          "name": "response",
          "type": "tuple"
        },
        {
          "internalType": "string",
          "name": "errorMessage",
          "type": "string"
        }
      ],
      "name": "onOracleGroqLlmResponse",
      "outputs": [],
      "stateMutability": "nonpayable",
      "type": "function"
    },
    {
      "inputs": [],
      "name": "oracleAddress",
      "outputs": [
        {
          "internalType": "address",
          "name": "",
          "type": "address"
        }
      ],
      "stateMutability": "view",
      "type": "function"
    },
    {
      "inputs": [],
      "name": "prompt",
      "outputs": [
        {
          "internalType": "string",
          "name": "",
          "type": "string"
        }
      ],
      "stateMutability": "view",
      "type": "function"
    },
    {
      "inputs": [
        {
          "internalType": "uint256",
          "name": "chatId",
          "type": "uint256"
        },
        {
          "internalType": "uint256",
          "name": "messageIndex",
          "type": "uint256"
        },
        {
          "internalType": "string",
          "name": "scenario",
          "type": "string"
        }
      ],
      "name": "requestImage",
      "outputs": [],
      "stateMutability": "nonpayable",
      "type": "function"
    },
    {
      "inputs": [
        {
          "internalType": "address",
          "name": "newOracleAddress",
          "type": "address"
        }
      ],
      "name": "setOracleAddress",
      "outputs": [],
      "stateMutability": "nonpayable",
      "type": "function"
    },
    {
      "inputs": [
        {
          "internalType": "string",
          "name": "message",
          "type": "string"
        }
      ],
      "name": "startChat",
      "outputs": [
        {
          "internalType": "uint256",
          "name": "",
          "type": "uint256"
        }
      ],
      "stateMutability": "nonpayable",
      "type": "function"
    }
  ],
  "bytecode": "0x6040608081523462000a7457620029ef90813803806200001f8162000ab9565b938439820191818184031262000a745780516001600160a01b038116919082900362000a74576020810151906001600160401b03821162000a74570183601f8201121562000a74578051906001600160401b038211620005aa576200008e601f8301601f191660200162000ab9565b948286526020838301011162000a745760005b82811062000a5e57505060206000918501015260018060a01b0319338160035416176003556004541617600455815160018060401b038111620005aa57600054600181811c9116801562000a53575b60208210146200058957601f8111620009fb575b50602092601f821160011462000985579281929360009262000979575b50508160011b916000199060031b1c1916176000555b600060025580519061016082016001600160401b03811183821017620005aa5781526200016362000a79565b60128152710dad2f0e8e4c2d85a70f06ec45a66646e6c760731b60208201528252601560208301526200019562000a99565b60008152818301526103e8606083015260156080830152620001b662000a79565b600f81526e7b2274797065223a2274657874227d60881b602082015260a0830152600060c0830152620001e862000a99565b6000815260e0830152600a61010083015260656101208301526200020b62000a99565b60008152610140830152815180519092906001600160401b038111620005aa57600554600181811c911680156200096e575b60208210146200058957601f811162000924575b506020601f8211600114620008b55781929394600092620008a9575b50508160011b916000199060031b1c1916176005555b602081015160ff19600654169060ff16176006558181015191825160018060401b038111620005aa57600754600181811c911680156200089e575b60208210146200058957601f811162000838575b506020601f8211600114620007c95781929394600092620007bd575b50508160011b916000199060031b1c1916176007555b63ffffffff60608301511660085490608084015160201b64ff00000000169164ffffffffff1916171760085560a082015191825160018060401b038111620005aa57600954600181811c91168015620007b2575b60208210146200058957601f81116200074c575b506020601f8211600114620006dd5781929394600092620006d1575b50508160011b916000199060031b1c1916176009555b60c0810151600a5560e08101518051906001600160401b038211620005aa57600b54600181811c91168015620006c6575b60208210146200058957601f81116200065c575b50602090601f8311600114620005cc5761014093929160009183620005c0575b50508160011b916000199060031b1c191617600b555b610100810151600c55610120810151600d55015180519091906001600160401b038111620005aa57600e54600181811c911680156200059f575b60208210146200058957601f81116200051f575b50602092601f8211600114620004b45792819293600092620004a8575b50508160011b916000199060031b1c191617600e555b51611eef908162000ae08239f35b01519050388062000484565b601f19821693600e60005260206000209160005b868110620005065750836001959610620004ec575b505050811b01600e556200049a565b015160001960f88460031b161c19169055388080620004dd565b91926020600181928685015181550194019201620004c8565b600e6000527fbb7b4a454dc3493923482f07822329ed19e8244eff582cc204f8554c3620c3fd601f830160051c810191602084106200057e575b601f0160051c01905b81811062000571575062000467565b6000815560010162000562565b909150819062000559565b634e487b7160e01b600052602260045260246000fd5b90607f169062000453565b634e487b7160e01b600052604160045260246000fd5b01519050388062000403565b600b60009081527f0175b7a638427703f0dbe7bb9bbf987a2551717b34e79f33b5b1008d1fa01db9929190601f198516905b8181106200064357509160019391856101409796941062000629575b505050811b01600b5562000419565b015160001960f88460031b161c191690553880806200061a565b92936020600181928786015181550195019301620005fe565b600b6000527f0175b7a638427703f0dbe7bb9bbf987a2551717b34e79f33b5b1008d1fa01db9601f840160051c81019160208510620006bb575b601f0160051c01905b818110620006ae5750620003e3565b600081556001016200069f565b909150819062000696565b90607f1690620003cf565b01519050388062000388565b600960005260206000209060005b601f1984168110620007335750600193949583601f1981161062000719575b505050811b016009556200039e565b015160001960f88460031b161c191690553880806200070a565b9091602060018192858a015181550193019101620006eb565b60096000527f6e1540171b6c0c960b71a7020d9f60077f6af931a8bbf590da0223dacf75c7af601f830160051c810160208410620007aa575b601f830160051c820181106200079d5750506200036c565b6000815560010162000785565b508062000785565b90607f169062000358565b015190503880620002ee565b600760005260206000209060005b601f19841681106200081f5750600193949583601f1981161062000805575b505050811b0160075562000304565b015160001960f88460031b161c19169055388080620007f6565b9091602060018192858a015181550193019101620007d7565b60076000527fa66cc928b5edb82af9bd49922954155ab7b0942694bea4ce44661d9a8736c688601f830160051c81016020841062000896575b601f830160051c8201811062000889575050620002d2565b6000815560010162000871565b508062000871565b90607f1690620002be565b0151905038806200026d565b600560005260206000209060005b601f19841681106200090b5750600193949583601f19811610620008f1575b505050811b0160055562000283565b015160001960f88460031b161c19169055388080620008e2565b9091602060018192858a015181550193019101620008c3565b60056000526020600020601f830160051c81016020841062000966575b601f830160051c820181106200095957505062000251565b6000815560010162000941565b508062000941565b90607f16906200023d565b01519050388062000121565b6000808052601f19831694600080516020620029cf8339815191529290915b868110620009e25750836001959610620009c8575b505050811b0160005562000137565b015160001960f88460031b161c19169055388080620009b9565b91926020600181928685015181550194019201620009a4565b60008052600080516020620029cf833981519152601f830160051c8101916020841062000a48575b601f0160051c01905b81811062000a3b575062000104565b6000815560010162000a2c565b909150819062000a23565b90607f1690620000f0565b80602080928401015182828901015201620000a1565b600080fd5b60408051919082016001600160401b03811183821017620005aa57604052565b60405190602082016001600160401b03811183821017620005aa57604052565b6040519190601f01601f191682016001600160401b03811183821017620005aa5760405256fe6080604052600436101561001257600080fd5b60003560e01c80631384cbca146100e25780631ab75114146100dd5780632d08d82a146100d85780633792b26d146100d357806341e8b32a146100d35780634c69c00f146100ce57806354a470fc146100c9578063632cc98b146100c45780637397454d146100bf5780637c65d711146100ba578063941fac37146100b5578063a89ae4ba146100b05763cc060137146100ab57600080fd5b6112a5565b611257565b6110f7565b611024565b610e6e565b610e31565b610d0c565b610b73565b610698565b61051a565b610410565b6101b9565b634e487b7160e01b600052604160045260246000fd5b604081019081106001600160401b0382111761011857604052565b6100e7565b90601f801991011681019081106001600160401b0382111761011857604052565b6040519061012082018281106001600160401b0382111761011857604052565b81601f820112156101b4578035906001600160401b0382116101185760405192610192601f8401601f19166020018561011d565b828452602083830101116101b457816000926020809301838601378301015290565b600080fd5b346101b45760603660031901126101b4576024356004356044356001600160401b0381116101b4576101f26102b391369060040161015e565b61022961021961020c856000526001602052604060002090565b546001600160a01b031690565b6001600160a01b03163314611d96565b61024b6002610242856000526001602052604060002090565b01548510611ded565b60408051602080820186815282840188905292825291839161026e60608261011d565b51902060045461029490610288906001600160a01b031681565b6001600160a01b031690565b906000604051809781958294634b04236b60e01b845260048401611e31565b03925af1908115610329577f6e6c5795acac225cbfe9088a0960ff834342747236f29c66839f3e18f305cbc5926102f6926102fb575b5060405191829182610684565b0390a3005b61031b9060203d8111610322575b610313818361011d565b8101906118c9565b50386102e9565b503d610309565b611985565b60005b8381106103415750506000910152565b8181015183820152602001610331565b9060209161036a8151809281855285808601910161032e565b601f01601f1916010190565b906040820191604081528151809352606081019260208093019060005b8181106103fc57505050818184039101528251908183528083019281808460051b8301019501936000915b8483106103ce5750505050505090565b90919293949584806103ec600193601f198682030187528a51610351565b98019301930191949392906103be565b825186529484019491840191600101610393565b346101b45760403660031901126101b457602435600181016004358183116105155761043b82611c5e565b91610449604051938461011d565b808352610458601f1991611c5e565b0136602084013761047061046b846118bb565b611e6f565b92600091825b8281111561049957505050808252825261049560405192839283610376565b0390f35b6104c86104c3826104b485600052600f602052604060002090565b90600052602052604060002090565b610b58565b80516104de575b506104d99061188c565b610476565b8461050e91836104f26104d995988a611c9b565b526104fd828a611c9b565b526105088189611c9b565b5061188c565b93906104cf565b61158b565b346101b45760203660031901126101b4576004356001600160401b0381116101b45761054a90369060040161015e565b6105c16105636002546000526001602052604060002090565b80546001600160a01b031916331781556105bb6002610591610583611408565b61058b610a9d565b90611caf565b926105a0600182019485611787565b01936105ac855461188c565b85556105b661189b565b611caf565b90611787565b6105cb815461188c565b90556002546105e16105dc826118bb565b600255565b6004546105f890610288906001600160a01b031681565b9060206040518093631e0fca9360e11b82528160008161061b87600483016118d8565b03925af19182156103295761049592610666575b5060405191818392337fd1de2c4de50323207202f3df0bb1dec1a42e233aec245f25519d674c10bd72ca600080a382526020820190565b61067d9060203d811161032257610313818361011d565b503861062f565b906020610695928181520190610351565b90565b346101b45760403660031901126101b457600435600052600f60205260406000206024356000526020526104956106dc6106e3604060002060405192838092610a07565b038261011d565b604051918291602083526020830190610351565b634e487b7160e01b600052600060045260246000fd5b90600182811c9216801561073d575b602083101461072757565b634e487b7160e01b600052602260045260246000fd5b91607f169161071c565b600554600092916107578261070d565b808252916001908181169081156107ce575060011461077557505050565b9192935060056000527f036b6384b5eca791c62761152d0c79bb0604c104a5fb6f4eb0703f3154bb3db0916000925b8484106107b657505060209250010190565b805460208585018101919091529093019281016107a4565b915050602093945060ff929192191683830152151560051b010190565b600754600092916107fb8261070d565b808252916001908181169081156107ce575060011461081957505050565b9192935060076000527fa66cc928b5edb82af9bd49922954155ab7b0942694bea4ce44661d9a8736c688916000925b84841061085a57505060209250010190565b80546020858501810191909152909301928101610848565b600954600092916108828261070d565b808252916001908181169081156107ce57506001146108a057505050565b9192935060096000527f6e1540171b6c0c960b71a7020d9f60077f6af931a8bbf590da0223dacf75c7af916000925b8484106108e157505060209250010190565b805460208585018101919091529093019281016108cf565b600b54600092916109098261070d565b808252916001908181169081156107ce575060011461092757505050565b91929350600b6000527f0175b7a638427703f0dbe7bb9bbf987a2551717b34e79f33b5b1008d1fa01db9916000925b84841061096857505060209250010190565b80546020858501810191909152909301928101610956565b600e54600092916109908261070d565b808252916001908181169081156107ce57506001146109ae57505050565b91929350600e6000527fbb7b4a454dc3493923482f07822329ed19e8244eff582cc204f8554c3620c3fd916000925b8484106109ef57505060209250010190565b805460208585018101919091529093019281016109dd565b9060009291805491610a188361070d565b918282526001938481169081600014610a7a5750600114610a3a575b50505050565b90919394506000526020928360002092846000945b838610610a66575050505001019038808080610a34565b805485870183015294019385908201610a4f565b9294505050602093945060ff191683830152151560051b01019038808080610a34565b60405190600082815491610ab08361070d565b80835292600190818116908115610b365750600114610ad9575b50610ad79250038361011d565b565b600080805291507f290decd9548b62a8d60345a988386fc84ba6bc95484008f6362f93160ef3e5635b848310610b1b5750610ad7935050810160200138610aca565b81935090816020925483858a01015201910190918592610b02565b905060209250610ad794915060ff191682840152151560051b82010138610aca565b90610ad7610b6c9260405193848092610a07565b038361011d565b346101b45760203660031901126101b4576004356001600160a01b03818116918290036101b457600354163303610bdd57600480546001600160a01b031916821790557f107a9fafffb7ac890f780879e423760c9ffea8dcee8045681f40f542aede2cb8600080a2005b60405162461bcd60e51b815260206004820152601360248201527221b0b63632b91034b9903737ba1037bbb732b960691b6044820152606490fd5b6020808201908083528351809252604092838101600594838186881b850101970195600080945b878610610c525750505050505050505090565b909192939495969798603f19828203018652878a5181610c79825189865289860190610351565b91015192828183039101528251808252828201908380828a1b850101950192875b8a838210610cbf57505050505050806001929b01960196019497969593929190610c3f565b95610cfb60019395978293959799601f19888203018a5283610ceb8c5193845190808552840190610351565b9201519084818403910152610351565b970195019101918c94939192610c9a565b346101b4576020806003193601126101b45760009060043582526001918282526040908382822001805490610d4082611c5e565b94610d4d8551968761011d565b82865280860191845280842084925b848410610d70578651806104958a82610c18565b86838a928251610d7f816100fd565b8351610d8f816106dc818a610a07565b815284860180548b610da082611c5e565b92610dad8851948561011d565b828452815285812090888785015b848310610ddd5750505050506002945083820152815201920193019290610d5c565b89600293959799929496989a5190610df4826100fd565b8051610e04816106dc818c610a07565b825251610e17816106dc81898c01610a07565b83820152815201930191019089959391888f989694610dbb565b346101b45760203660031901126101b4576004356000526001602052604080600020600260018060a01b0382541691015482519182526020820152f35b346101b45760603660031901126101b4576001600160401b036004356024358281116101b457610ea290369060040161015e565b6044358381116101b457610eba90369060040161015e565b610ecf60018060a01b03600454163314611991565b6fffffffffffffffffffffffffffffffff8360801c931693815115600014610f475750506102f681610f397fe56adaa24bce28669dc7e552a7ed788e564160d9deab517739741542ebc88df793610f34876104b488600052600f602052604060002090565b6114bd565b60405191829182610684565b005b9150916000908152602093600f85526040822090825284526040812092805192831161011857610f8183610f7b865461070d565b86611478565b8491601f8411600114610fbb578394955092610fb0575b5050600019600383901b1c191660019190911b179055005b015190503880610f98565b9190601f19841695610fd286600052602060002090565b93905b87821061100c575050836001959610610ff3575b505050811b019055005b015160001960f88460031b161c19169055388080610fe9565b80600185968294968601518155019501930190610fd5565b346101b4576000806003193601126110f457604051908080546110468161070d565b808552916001918083169081156110ca5750600114611070575b61049585610f398187038261011d565b80809450527f290decd9548b62a8d60345a988386fc84ba6bc95484008f6362f93160ef3e5635b8284106110b2575050508101602001610f3982610495611060565b80546020858701810191909152909301928101611097565b86955061049596935060209250610f3994915060ff191682840152151560051b8201019293611060565b80fd5b346101b45760403660031901126101b4576004356001600160401b0381116101b457602061123061112e600093369060040161015e565b602435906111f0611149836000526001602052604060002090565b916105bb60018401916111e86111d8600287019661020c61117361116d8a54611ac5565b88611440565b5060405190816111868f82018093611ad4565b039161119a601f199384810183528261011d565b519020906040516111cf8f820192826111c38560099068185cdcda5cdd185b9d60ba1b81520190565b0390810183528261011d565b51902014611bc7565b6001600160a01b03163314611c13565b6105b661189b565b6111fa815461188c565b905560045461121390610288906001600160a01b031681565b90604051948580948193631e0fca9360e11b8352600483016118d8565b03925af180156103295761124057005b610f459060203d811161032257610313818361011d565b346101b45760003660031901126101b4576004546040516001600160a01b039091168152602090f35b35906001600160401b03821682036101b457565b359063ffffffff821682036101b457565b346101b4576003196060368201126101b4576024356001600160401b03918282116101b4576101209082360301126101b4576112df61013e565b600491808301358481116101b4576112fc9084369184010161015e565b825260248101358481116101b4576113199084369184010161015e565b602083015261132a60448201611280565b604083015260648101358481116101b45761134a9084369184010161015e565b606083015260848101358481116101b45761136a9084369184010161015e565b608083015260a48101358481116101b4576113be916113916101049286369184010161015e565b60a08501526113a260c48201611294565b60c08501526113b360e48201611294565b60e085015201611294565b6101008201526044359283116101b4576113de610f45933690840161015e565b91356119d4565b60405190602082018281106001600160401b038211176101185760405260008252565b60405190611415826100fd565b600682526573797374656d60d01b6020830152565b634e487b7160e01b600052603260045260246000fd5b805482101561145c5760005260206000209060011b0190600090565b61142a565b81811061146c575050565b60008155600101611461565b9190601f811161148757505050565b610ad7926000526020600020906020601f840160051c830193106114b3575b601f0160051c0190611461565b90915081906114a6565b91909182516001600160401b038111610118576114e4816114de845461070d565b84611478565b602080601f8311600114611520575081929394600092611515575b50508160011b916000199060031b1c1916179055565b0151905038806114ff565b90601f1983169561153685600052602060002090565b926000905b8882106115735750508360019596971061155a575b505050811b019055565b015160001960f88460031b161c19169055388080611550565b8060018596829496860151815501950193019061153b565b634e487b7160e01b600052601160045260246000fd5b6115ab815461070d565b90816115b5575050565b81601f600093116001146115c7575055565b9080839182526115e6601f60208420940160051c840160018501611461565b5555565b9080519081516001600160401b0381116101185761160c81610f7b865461070d565b6020928390601f831160011461165857918060019492610ad797969460009261164d575b5050600019600383901b1c191690841b1784555b015191016114bd565b015190503880611630565b90601f1983169161166e87600052602060002090565b9260005b8181106116b657509260019593928592610ad799989688951061169d575b505050811b018455611644565b015160001960f88460031b161c19169055388080611690565b929387600181928786015181550195019301611672565b815191600160401b831161011857815483835580841061172c575b506116fd602080920192600052602060002090565b6000925b84841061170f575050505050565b6002838261172060019451866115ea565b01920193019290611701565b6001600160ff1b03818116820361051557841684036105155782600052602060002090600190811b82019185821b015b82811061176a5750506116e8565b806117766002926115a1565b6117818382016115a1565b0161175c565b9190918054600160401b811015610118576117a9906001928382018155611440565b9190916118875783518051946001600160401b038611610118576117d186610f7b865461070d565b6020918290601f881160011461181957968091610ad7979860009261180e575b5050600019600383901b1c191690841b1784555b015191016116cd565b0151905038806117f1565b90601f1988169161182f87600052602060002090565b9260005b8181106118725750918693918a610ad79a9b9410611859575b505050811b018455611805565b015160001960f88460031b161c1916905538808061184c565b82840151855593870193928601928601611833565b6106f7565b60001981146105155760010190565b604051906118a8826100fd565b60048252633ab9b2b960e11b6020830152565b906001820180921161051557565b908160209103126101b4575190565b61069591815260406020820152610160908160408201526101806118ff6101a08301610747565b60065460000b606084015261196861194f611926603f1993848782030160808801526107eb565b60085463ffffffff811660a088015260201c60000b60c0870152838682030160e0870152610872565b600a5461010086015282858203016101208601526108f9565b93600c54610140850152600d549084015282840301910152610980565b6040513d6000823e3d90fd5b1561199857565b60405162461bcd60e51b815260206004820152601460248201527343616c6c6572206973206e6f74206f7261636c6560601b6044820152606490fd5b611a00909291926119f060018060a01b03600454163314611991565b6000526001602052604060002090565b600260018201910192611a75611a1f611a198654611ac5565b84611440565b506040519081611a33602082018093611ad4565b0391611a47601f199384810183528261011d565b51902090604051611a6c6020820192826111c385600490633ab9b2b960e11b81520190565b51902014611b56565b611a8d611a89611a836113e5565b85611d41565b1590565b15611ab057506105bb611aa2926105b6611ba2565b611aac815461188c565b9055565b611aa2925060206105bb9101516105b6611ba2565b60001981019190821161051557565b600092918154611ae38161070d565b92600191808316908115611b3b5750600114611aff5750505050565b90919293945060005260209081600020906000915b858310611b2a5750505050019038808080610a34565b805485840152918301918101611b14565b60ff1916845250505081151590910201915038808080610a34565b15611b5d57565b60405162461bcd60e51b815260206004820152601860248201527f4e6f206d65737361676520746f20726573706f6e6420746f00000000000000006044820152606490fd5b60405190611baf826100fd565b6009825268185cdcda5cdd185b9d60ba1b6020830152565b15611bce57565b60405162461bcd60e51b815260206004820152601f60248201527f4e6f20726573706f6e736520746f2070726576696f7573206d657373616765006044820152606490fd5b15611c1a57565b606460405162461bcd60e51b815260206004820152602060248201527f4f6e6c792063686174206f776e65722063616e20616464206d657373616765736044820152fd5b6001600160401b0381116101185760051b60200190565b60405190611c82826100fd565b60606020838281520152565b80511561145c5760200190565b805182101561145c5760209160051b010190565b90611cb8611c75565b5060405190611cc6826100fd565b6001825260005b602080821015611cef5790602091611ce3611c75565b90828601015201611ccd565b505090611d3b60209160405194611d05866100fd565b8552611d1683860191808352611c8e565b5160405190611d24826100fd565b60048252631d195e1d60e21b858301525251611c8e565b51015290565b9060405191602092611d6f848281611d62818301968781519384920161032e565b810103808452018261011d565b51902091611d8f604051918281611d62818301968781519384920161032e565b5190201490565b15611d9d57565b60405162461bcd60e51b815260206004820152602260248201527f4f6e6c792063686174206f776e65722063616e207265717565737420696d6167604482015261657360f01b6064820152608490fd5b15611df457565b60405162461bcd60e51b8152602060048201526015602482015274092dcecc2d8d2c840dacae6e6c2ceca40d2dcc8caf605b1b6044820152606490fd5b60a0906106959392815260606020820152601060608201526f34b6b0b3b2afb3b2b732b930ba34b7b760811b60808201528160408201520190610351565b90611e7982611c5e565b611e86604051918261011d565b8281528092611e97601f1991611c5e565b019060005b828110611ea857505050565b806060602080938501015201611e9c56fea2646970667358221220662cd746759a6f8752ac5ac2e3438447c20c8ec7fefc14e9a2477a2ce243627264736f6c63430008140033290decd9548b62a8d60345a988386fc84ba6bc95484008f6362f93160ef3e563",
  "linkReferences": {},
  "deployedLinkReferences": {}
}